:1000000006308A007F2E0000831A0A28A400030EFF
:10001000A5000F288312A400030EA500A5140A084A
:10002000AB008A018313A40E0408A6002008A700D1
:100030002108A8002208A9002308AA0083128B1E09
:1000400023280B1946290B1E27288B1840288C3093
:100050008400001C2D280C18792826088400270805
:10006000A0002808A1002908A2002A08A3002B0844
:100070008A00250E83008312240EA518831609001A
:10008000831687110830831287068B100B128B1290
:10009000B601053090008E01FC308F00B7308E0025
:1000A00083160C148312CB013114B301B401B501D2
:1000B000B701B201BD018B108A112D28B117440B75
:1000C00066283408CC003308CD006F28C408031D0F
:1000D0006F283508CC003408CD003308CE0010104E
:1000E0008B108B100B1683160C1083128B16BD0110
:1000F000080083160711043083128706D1011430DB
:10010000D0003112311CBF28831685148312B11020
:100110008518B1143111B11831153110311DA628CF
:10012000311DA528831685148312311185183115C8
:10013000D008031D9E28D1080319A32850080319CD
:10014000D103D003A42831119028B7283119B7283A
:10015000831685148312311185183115500803193F
:10016000D103D00BB628D10803193115A6280530C4
:1001700090008E01FF308F0069308E004129831678
:1001800085148312B1118518B11531140530900012
:100190008E01FE308F00A1308E003112B20A4F1056
:1001A000CF1032081A3C031C3829B118DE28B11DC3
:1001B000DE280314B30DB40DB50D3729B11CE728A3
:1001C000B119E7280310B30DB40DB50D3729B11CD3
:1001D0002E29B11D2E293208113A0319F928033AA4
:1001E0000319FB280B3A03190F29033A03191129A4
:1001F0002429CB0A2D29CB0A4B08023C031D0729D1
:100200000130C4005E204F144F11CF100E2931165B
:100210008B100B1683160C1083128B162D29CB0A0C
:100220002D29CB0A4B08023C031D1C29C4015E206A
:100230004F104F15CF10232931168B100B16831634
:100240000C1083128B162D29311610108B100B16E3
:1002500083160C1083128B16BD0137293116BD0190
:1002600010108B100B1683160C1083128B1641295D
:10027000B116BD0110108B100B1683160C108312D3
:100280008B160030A1000C108A112D28CF15C9083B
:1002900003194C29C903A4295908C9003A083C028A
:1002A000031C6F29031D58293B08390203186F29C5
:1002B000B90A0319BA0A3A08A2003908A100A20C27
:1002C000A10CA20CA10CA20C21089300A20C220CE0
:1002D0003039A0001508CF3920049500A4293C0826
:1002E0003A02031C9129031D792939083B0203189E
:1002F000912939080319BA03B9033A08A200390849
:10030000A100A20CA10CA20CA10CA20C210893002C
:10031000A20C220C3039A0001508CF39200495001A
:10032000A4293A08A2003908A100A20CA10CA20C31
:10033000A10CA20C21089300A20C220C3039A000C1
:100340001508CF3920049500BF0BAC290430BF003D
:100350003D08F93C0318BD0A0B118A112D280830FD
:1003600083169B009C131C141A088312DF000730AD
:1003700083169B009C131C141A088312E0005F086C
:10038000D3006008D2000230A000A00BC529C82904
:10039000000083169B019C131C141A088312DA00B8
:1003A0000230A000A00BD229D5290000023083160C
:1003B0009B009C131C141A088312D7000230A00063
:1003C000A00BE029E3290000033083169B009C1357
:1003D0001C141A088312D8000230A000A00BEE29CA
:1003E000F1290000043083169B009C131C141A088A
:1003F0008312D9000230A000A00BFC29FF290000C5
:10040000063083169B009C131C141A088312DE000E
:100410000230A000A00B0A2A0D2A0000203083160B
:100420009B009C131C141A088312CA000230A000FF
:10043000A00B182A1B2A000008000030A100063873
:1004400092007C30831692008712831287120C3040
:1004500095009601970183160108C7390838810075
:1004600005308312900010108B1083160113831235
:100470000B168B1683168C10C03083128B0417302A
:10048000BD00B113BA01B901B52EA001A1016108E7
:1004900003106218A007A00CA10CE218A007A00C82
:1004A000A10C6219A007A00CA10CE219A007A00CD6
:1004B000A10C621AA007A00CA10CE21AA007A00CC4
:1004C000A10C621BA007A00CA10CE21BA007A00CB2
:1004D000A10C08005F0858020318702A5808DF00B2
:1004E0005F08093C031C782ABC015F08BB00AC2AEA
:1004F0005F081D3C031C8B2A0A305F02E000E1000C
:100500000230E200452221080A3EBB002008BC0060
:100510000318BC0AAC2A5F083B3C031C9E2A1E3011
:100520005F02E000E1000530E20045222108323E92
:10053000BB002008BC000318BC0AAC2A3C305F0298
:10054000E000E1000A30E20045222108C33EBB0082
:100550002008BC000318BC0A3C08023C0318BB2A54
:10056000FF3A031DB72A3B08FC3C0318BB2A0330A3
:10057000BC00FC30BB0008005708DF006A22C6013F
:1005800008003808DF006A220130C6000800311375
:10059000831685148312851CD12A05108316051035
:1005A00083121930A000A00BD32AD62A000083168C
:1005B00085148312851CE22A051483160510831204
:1005C0003117192B6030A000A00BE42A000083161D
:1005D000851483128518F12A051483160510F82A4C
:1005E000831205148316051083123117192B8316F5
:1005F00019308312A000A00BFB2AFE2A00008316EC
:100600008514831285180A2B05148316051083128E
:100610003117192B6030A000A00B0C2B00008316A3
:10062000851483128518192B05148316051083125F
:100630003117080005148316051005308312E100F8
:10064000A330E2001230E202031C342B623084003B
:10065000FC3080050310800C800C00080319342B3B
:10066000322B0000800B312BE10B202B0800600D9A
:10067000C000C00DC00DF830C0053D080C3C03188B
:100680003D2B0B138B138B1B422BC722BE01400843
:100690003E020318982B0314C10DC20DC30D031C99
:1006A000532BC722942B31130514831605101930D0
:1006B0008312A000A00B5A2B5D2B0000831685141B
:1006C00083128518652B3117942B6030A000A00B86
:1006D000672B0000831685148312851C742B05106C
:1006E000831605107B2B83120514831605108312C5
:1006F0003117942B831619308312A000A00B7E2B88
:10070000812B0000831685148312851C892B3117D9
:10071000942B6030A000A00B8B2B00008316851457
:100720008312851C942B3117311B9C2BBE0A472B3F
:100730001A231A231A231A23051483160510831269
:10074000BD018B10C0308B048B160800C7014D080B
:10075000C93A0319EE2B193A0319032C043A031969
:10076000072C0C3A03190A2C293A03190A2C2D3AA2
:100770000319152C2C3A0319152C1A3A0319202C9D
:100780000D3A03193D2CEE3A0319652C2B3A031947
:10079000282D013A03194C2D073A0319512D013A1E
:1007A0000319782D033A0319812D013A0319902D6D
:1007B000163A03199E2D033A0319C62D013A03195F
:1007C000D52D193A0319E42D013A0319042E043AE0
:1007D0000319242E1B3A0319442E4D2E4E0858029D
:1007E0000318F52B5808B800FE2B57084E020318C3
:1007F000FC2B5708B800FE2B4E08B800C122380861
:10080000DF006A224F2E5808B800C1224F2EB801CF
:10081000BC224F2E460B142C380857020318142CF8
:10082000B8033808DF006A224F2E460B1F2C5808E9
:10083000380203181F2CB80A3808DF006A224F2E2E
:100840004E08103C031C3C2C4E08C50009304507DF
:10085000DF005F0883169B009C131C141A08831288
:10086000B80038085702031C382CB801BC223C2CB5
:10087000C1223808DF006A224F2E4E08103C031CAC
:10088000642C0B138B138B1B422C09304E07DF009B
:100890000B08A0008B135F0883169B008312380897
:1008A00083169A009C131C1555309D00AA309D009C
:1008B0009C149C18592C1C11831220088B04602C4A
:1008C000612C0000C0308B044F2E083083169B0033
:1008D0009C131C141A088312DF00073083169B0038
:1008E0009C131C141A088312E0005F08D3006008F0
:1008F000D2004E080F39D4004E0810390319842C49
:10090000103A0319D82C272DA3010130A200540856
:10091000A0000319902C0310A20DA30DA00B8B2C8B
:100920002208FF3AA000FF30A3062008D2052308C2
:10093000D3055208DF000B08A0008B130730831685
:100940009B008312520883169A009C131C15553085
:100950009D00AA309D009C149C18AC2C1C11831285
:1009600020088B040230A000A00BB42CB72C000090
:100970005308DF000B08A0008B13083083169B0080
:100980008312530883169A009C131C1555309D0042
:10099000AA309D009C149C18CB2C1C11831220089B
:1009A0008B040230A000A00BD32CD62C0000272DE6
:1009B000A3010130A2005408A0000319E42C031085
:1009C000A20DA30DA00BDF2C2208D2042308D30410
:1009D0005208DF000B08A0008B13073083169B0022
:1009E0008312520883169A009C131C1555309D00E3
:1009F000AA309D009C149C18FB2C1C11831220080B
:100A00008B040230A000A00B032D062D000053081C
:100A1000DF000B08A0008B13083083169B008312A5
:100A2000530883169A009C131C1555309D00AA305C
:100A30009D009C149C181A2D1C11831220088B04F5
:100A40000230A000A00B222D252D0000272D4F2EB7
:100A50004E083F3C031C4B2D4E08DE000B08A00047
:100A60008B13063083169B0083125E0883169A0050
:100A70009C131C1555309D00AA309D009C149C1899
:100A80003F2D1C11831220088B040230A000A00B04
:100A9000472D4A2D00004F2E4E08DB000130DD00AF
:100AA0004F2E4E08DC005D0B762D5C08203C031CAD
:100AB000762DDD010B08A0008B135C0883169B00CC
:100AC00083125B0883169A009C131C1555309D00F9
:100AD000AA309D009C149C186B2D1C1183122008B9
:100AE0008B040630A000A00B732D0000AF214F2E09
:100AF0005E08C3005B08C2000230DF00E00037235D
:100B00004F2E4E08DC005C08203C031C8F2D5C0837
:100B100083169B009C131C141A088312DB004F2EB3
:100B20005E08C30083169B019C131C141A088312D1
:100B3000C2000230DF00E00037234F2E4E08CF3CCA
:100B40000318C52D4E08DF3C031CC52D4E08CA00F6
:100B50000B08A0008B13203083169B0083124A08D9
:100B600083169A009C131C1555309D00AA309D00D9
:100B70009C149C18B92D1C11831220088B04023080
:100B8000A000A00BC12DC42D00004F2E5E08C30095
:100B9000073083169B009C131C141A088312C20092
:100BA0000230DF00E00037234F2E5E08C30008301C
:100BB00083169B009C131C141A088312C200023077
:100BC000DF00E00037234F2E4E08D8000B08A000AE
:100BD0008B13033083169B008312580883169A00E8
:100BE0009C131C1555309D00AA309D009C149C1828
:100BF000F72D1C11831220088B040230A000A00BDB
:100C0000FF2D022E00004F2E4E08D8000B08A0002A
:100C10008B13023083169B008312570883169A00A9
:100C20009C131C1555309D00AA309D009C149C18E7
:100C3000172E1C11831220088B040230A000A00B79
:100C40001F2E222E00004F2E4E08D9000B08A000A8
:100C50008B13043083169B008312590883169A0065
:100C60009C131C1555309D00AA309D009C149C18A7
:100C7000372E1C11831220088B040230A000A00B19
:100C80003F2E422E00004F2E5E08C3000130C200EE
:100C90000230DF00E00037234F2E0130C700C708C5
:100CA000031D682E0B08A0008B1383169B01831273
:100CB000380883169A009C131C1555309D00AA30E5
:100CC0009D009C149C18622E1C11831220088B041A
:100CD0000230DF005F308400000803197D2E0130F0
:100CE000A100A001A00B722EA10B712E4A30A00012
:100CF000A00B782E7B2E800B6F2EC80108000308F6
:100D00001F398300613083168F000F08043083126F
:100D1000BF0031130130C900D230CA000130D10008
:100D20002C30D000D501D6010130DE00CF111F13C9
:100D300000308316910083129A0107309900AC01AC
:100D40001814113098000A30A0008101813084000D
:100D50000008F0390738800064000008F739A0194E
:100D6000F03920048000AF211D2A083083169B0033
:100D70009C131C141A088312DF00073083169B0093
:100D80009C131C141A088312E0005F08D30060084B
:100D9000D20083169B019C131C141A088312DA00DC
:100DA0005A08023C031CEC2EB801BC22BA01B9015E
:100DB0003A08A2003908A100A20CA10CA20CA10CB7
:100DC000A20C21089300A20C220C3039A0001508B7
:100DD000CF39200495000B2F5A08B8003808DF00DF
:100DE0006A223C08A2003B08A100A20CA10CA20CA4
:100DF000A10CA20C21089300A20C220C3039A000F7
:100E00001508CF39200495003C08BA003B08B9000A
:100E10005908C900C122CF1D0F2F6400CF11B11F87
:100E20003D2F4C0F152FA6233C2F5E084C02031DAF
:100E30001B2FA6233C2F4A084C02031D212FA6235B
:100E40003C2F4C08BF3C03183C2F4C08CF3C031CE4
:100E50003C2F4C080F39D4005308A3005208A200BD
:100E60005408A0000319392F0310A30CA20CA00BE7
:100E7000342F22082218A623B113311F492F5508F9
:100E8000043C031C492FD50A0230DF00E000372361
:080E90004A2FD5010B2F63006E
:1042000064003200000064000500060001000100A7
:08421000000006000700080091
:02424000D200AA
:02400E00EC3391
:00000001FF
;PIC16F684
;CRC=44DD  CREATED="22-Apr-22 15:35"
